:020000040800F2
:100000003004002001010008CF0D0008030D000896
:10001000CD0D00086D01000863100008000000000D
:10002000000000000000000000000000E90F0008D0
:100030006F01000800000000D10D0008EB0F000860
:100040001B0100081B0100081B0100081B01000820
:100050001B0100081B0100081B0100081B01000810
:100060001B0100081B0100081B0100081B01000800
:100070001B0100081B0100081B0100081B010008F0
:100080001B0100081B0100081B0100081B010008E0
:100090001B0100081B0100081B0100081B010008D0
:1000A0001B0100081B0100081B0100081B010008C0
:1000B0001B0100081B0100081B0100081B010008B0
:1000C0001B0100081B0100081B0100081B010008A0
:1000D0001B0100081B0100081B0100081B01000890
:1000E0001B0100081B0100081B010008DFF80CD0F1
:1000F00000F02AF800480047A5100008300400204E
:100100000648804706480047FEE7FEE7FEE7FEE7B1
:10011000FEE7FEE7FEE7FEE7FEE7FEE76110000808
:10012000ED000008D2B201E000F8012B491EFBD21D
:1001300070470022F6E710B513460A4604461946F2
:10014000FFF7F0FF204610BD064C074D06E0E068C3
:1001500040F0010394E8070098471034AC42F6D30E
:10016000FFF7C8FF1011000830110008FEE77047C4
:10017000014880687047000008000020024881683C
:10018000027811448160704708000020074810B5CC
:10019000016841F010010160032000F067F80020C1
:1001A00000F006F800F024F8002010BD0020024006
:1001B00070B50D4D04464FF47A712878B1FBF0F01C
:1001C0000A490968B1FBF0F000F087FD48B9102C2E
:1001D00007D200222146501E00F028F800206C6053
:1001E00070BD012070BD0000080000201400002038
:1001F0000C4808B5816941F001018161816901F014
:1002000001010091C16941F08051C161C06900F0F4
:10021000805000900448416821F0E06141F0007195
:10022000416008BD0010024000000140F0B40E4BD8
:100230001B680C46C3F30223C3F10705042D00D944
:100240000425191D072901D2002300E0DB1E012629
:1002500006FA05F1491E214099409E40761E16403F
:100260003143F0BC00F0FEBE0CED00E0064900F0AA
:10027000070208684FF6FF03184040EA0220034ACD
:1002800010430860704700000CED00E00000FA0524
:10029000014901200862704700000E4210B529A4F0
:1002A00001461DCC86B08DE81D002AA02A4C0068AE
:1002B00004900020012923D002293AD010291DD111
:1002C00061682268D20119D5C1F38342C9031DF8C0
:1002D000020009D5616804AAC1F34041515C1F4A7C
:1002E000B2FBF1F1484301E01D494843616849020E
:1002F00004D440005FF00301B0FBF1F006B010BD84
:10030000226AC2F30121012903D1920701D5C80352
:10031000F4E7022905D1626A920702D549F6404006
:10032000ECE70329EAD121688903E7D54FF224409D
:10033000E4E700F023F96168C1F38131491C490009
:10034000DAE7000002030405060708090A0B0C0D92
:100350000E0F1010010200000010024000127A007F
:1003600000093D002DE9F84305460078354CC007EB
:1003700054D0E0690026C00008D4E06940F0805005
:10038000E061E069012600F0805000902E4801688D
:10039000C90512D40168804641F480710160FFF7FD
:1003A000E7FE074605E000BFFFF7E2FEC01B64283A
:1003B00023D8D8F80000C005F6D5206A10F44070A4
:1003C00021D0A98801F4407181421CD0206A1F49C4
:1003D000012220F440700A6000220A602062C007F7
:1003E00011D0FFF7C5FE074641F2883808E000BF8C
:1003F000FFF7BEFEC11B414502D90320BDE8F883CB
:10040000206A8007F4D5206A696820F440700843A8
:1004100020621EB1E06920F08050E06128788007FA
:1004200005D56068A96820F44040084360602878DA
:10043000C00605D56068E96820F480000843606064
:100440000020DBE700100240007000404004424200
:100450002DE9F0470F46050061D0434E306800F0AB
:100460000700B84209D2306820F0070038433060F6
:10047000306800F00700B84251D128683B4C810732
:1004800012D5400703D5606840F4E06060602878CA
:10049000000703D5606840F4605060606068A96838
:1004A00020F0F000084360602878C00728D0686812
:1004B000012810D02168022810D0890700292EDADF
:1004C000616821F0030101436160FFF751FE80463E
:1004D00041F288390DE021688903EFE78901EDE7F2
:1004E000FFF746FEA0EB0801494502D90320BDE80D
:1004F000F0876068696800F00C00B0EB810FEFD105
:10050000306800F00700B8420BD9306820F00700CF
:1005100038433060306800F00700B84201D0012055
:10052000E5E72878400705D56068E96820F4E060D1
:10053000084360602878000706D56068296920F4C0
:10054000605040EAC100606000F028F86168084A25
:10055000C1F30311515CC8400649086006480068B1
:10056000FFF726FE0020C2E70020024000100240F4
:10057000F8100008140000200C0000200448054971
:1005800000684968044AC1F3C221515CC840704701
:1005900014000020001002400811000812A185B0CC
:1005A0000FC98DE80F0014A0144A00680490516828
:1005B000134801F00C03042B10D0082B0ED1C1F30B
:1005C0008343C9031DF803000AD5516804AAC1F387
:1005D0004041515C0A4A5043B0FBF1F005B070470E
:1005E00008494843FAE70000020304050607080922
:1005F0000A0B0C0D0E0F101001020000001002403B
:1006000000127A0000093D002DE9F84F040070D077
:100610002078C04DC00749D06868C0F38100012828
:1006200007D06868C0F38100022809D16868C00358
:1006300006D52868800339D560680028E7D035E002
:100640006068B0F5803F0BD010B1B0F5A02F11D08D
:10065000286820F480302860286820F4802002E098
:10066000286840F480302860606890B1FFF780FD12
:1006700006460AE0286840F480202860F0E700BFC2
:10068000FFF776FD801B642873D828688003F7D5B0
:100690000CE0FFF76DFD064605E000BFFFF768FDC3
:1006A000801B6428F0D828688003F7D420789A4EFD
:1006B00080074FF001094FF0000839D5686810F045
:1006C0000C0F07D06868C0F38100022809D1686860
:1006D000C00306D42868800714D52069012808D1F2
:1006E00010E02069B0B1C6F80090FFF741FD074661
:1006F00005E00AE1FFF73CFDC01B0228C4D82868CA
:100700008007F7D52868616920F0F80040EAC10049
:1007100028600DE0C6F80080FFF72AFD074604E0D8
:10072000FFF726FDC01B022823D828688007F7D4CE
:10073000207800072CD57948A169D9B1C0F800907C
:10074000FFF716FD074604E0FFF712FDC01B022865
:100750000FD8686A8007F7D571484FF4FA510068DE
:10076000B0FBF1F0009000BF0098411E0091FAD25A
:100770000EE080E0C0F80080FFF7FAFC074604E0D6
:10078000FFF7F6FCC01B022875D8686A8007F7D40B
:100790002078400760D5E8690027C00008D4E869E0
:1007A00040F08050E861E869012700F08050009037
:1007B0005C480168C90513D40168834641F480711F
:1007C0000160FFF7D5FC824606E000BFFFF7D0FCD2
:1007D000A0EB0A0064284ED8DBF80000C005F5D570
:1007E000E06801280AD008B1052813D0286A20F053
:1007F00001002862286A20F0040002E0286A40F024
:1008000001002862E06841F2883B98B1FFF7B0FC34
:1008100082460BE0286A40F004002862EEE700BF41
:10082000FFF7A6FCA0EB0A0159455AD8286A8007B1
:10083000F6D50CE0FFF79CFC824605E0FFF798FC3C
:10084000A0EB0A0159454CD8286A8007F6D41FB19D
:10085000E86920F08050E861E06988B36968C1F315
:100860008101022944D00228C6F8608004D0FFF735
:100870007FFC044638E034E0FFF77AFC074604E0EA
:10088000FFF776FCC01B02282BD828688001F7D41C
:10089000206AB0F5803F05D16868A16820F4003077
:1008A00008436860D4E908010843696821F47411B9
:1008B00008436860C6F86090FFF75AFC044606E0FB
:1008C00025E000BFFFF754FC001B022809D8286868
:1008D0008001F7D51BE000BFFFF74AFC001B022890
:1008E00002D90320BDE8F88F28688001F4D40EE017
:1008F0000128F7D06868226A00F48031914204D15F
:10090000616A00F47010884201D00120EAE70020FB
:10091000E8E700000010024000004242800442422A
:100920001400002000700040024850F8210080B2FE
:1009300070470000006C0040024800EB810091B25B
:1009400001607047006C0040F8B505004FF00000F2
:1009500016460C46009006D02CB100226946284667
:1009600000F019F808B10120F8BD287B2070E87B61
:10097000E070697B6170A97BA17056B100F032FA1A
:10098000E070607800F02EFA6070A07800F02AFA2B
:10099000A0700020F8BD2DE9F04791460C465FEAB3
:1009A000000840D0CCB3D8F80000406840073AD4E3
:1009B000404600F0B5FA4FF46162B0FBF2F1054633
:1009C00002FB11533C22B3FBF2F0607002FB1030CB
:1009D000A07018292FD31820B1FBF0F600FB1610D9
:1009E0002070404600F095FA411C03D0A84201D97E
:1009F000471B01E04FF0FF37A6EB061000EB40006D
:100A0000C0EB001005EBC0152946404600F0D8FAAF
:100A100018B9781C02D0791901E004E03946404643
:100A200000F0BAFA10B10120BDE8F0873146404627
:100A300000F0E3F900E02170B9F1000F0BD020784D
:100A400000F0D0F92070607800F0CCF96070A078E8
:100A500000F0C8F9A0700020E6E7000070B50400BF
:100A600003D0607C002610B105E0012070BD267423
:100A7000204600F043F802206074204600F010F990
:100A8000042578BB204600F00FFA58BB2068416867
:100A900021F007014160A06820B11748016821F0EA
:100AA000010101601448001F0168A26821F460710F
:100AB000114301606068411C04D10120FFF7EEFB87
:100AC00080B1401E21688A6822F00F0242EA10427B
:100AD0008A602168CA6860F30F02CA60204600F08D
:100AE000FDF908B16574C0E7E67301206073A07377
:100AF0006074002070BD0000306C004008B50068D4
:100B0000084988420DD1FFF7C3FB0748C16941F08E
:100B10000061C161C069054900F0006000900120DA
:100B2000086008BD00280040001002403C0442421A
:100B30002DE9F0410D4604003BD0C5B3207C0128CF
:100B40003AD04FF0010884F8108002206074E878F1
:100B500072B300F03EF9E073687800F03AF9607320
:100B6000A87800F036F9A073C2B2617BE07B00F098
:100B7000E7F920732870204600F0D2F94FF4616144
:100B8000B0FBF1F1002518292DD91822B1FBF2F1A3
:100B9000A1EB011101EB4101C1EB011100EBC11609
:100BA0003146204600F00CFA0427C8B90BE000E0FB
:100BB00004E00120BDE8F0810220FBE7E0736878E3
:100BC0006073A878CFE7204600F0A3F9411C0AD053
:100BD000B04208D206490144204600F0DDF910B1C8
:100BE00067742574E5E784F8118025740020E1E737
:100BF000805101002DE9F0410D46040024D01DB3C1
:100C0000207C012823D04FF0010884F810800220B6
:100C100060742878EAB100F0DCF84FF4616100FB01
:100C200001F6687800F0D5F8C0EB001006EB8006FE
:100C3000A87800F0CEF835182946204600F0C0F913
:100C40000026042710BB0FE00120BDE8F081022040
:100C5000FBE74FF4616148436978C1EB011100EB98
:100C60008100A9784518E7E72068416821F005016F
:100C70004160204600F04DF9411C0AD0A84208D23C
:100C800006490144204600F087F910B167742674C4
:100C9000DAE784F8118026740020D6E7805101003D
:100CA00070B504000AD02068416821F00801416055
:100CB000FFF75EFA05464FF47A7608E0012070BD32
:100CC000FFF756FA401BB04201D9032070BD2068DF
:100CD00040680007F4D5002070BD10B5401EB0F18B
:100CE000807F01D3012010BD4FF0E02460610F210F
:100CF000601700F0B7F90020A061072020610020F4
:100D000010BDFEE72DE9FC4100262F4801962D4934
:100D100000960160711E41604FF480718160FFF7A1
:100D20009DFE08B172B6FEE701212748FFF7FCFDE2
:100D300042F2086712240125B84222D18DF80440FE
:100D40008DF805408DF80640012201A91E48FFF7E5
:100D500051FF08B172B6FEE78DF800508DF80150D2
:100D60008DF802508DF80360012269461648FFF79E
:100D7000DFFE08B172B6FEE73A4601211248FFF7DE
:100D8000DBFD8DF804408DF805408DF8064001220A
:100D900001A90D48FFF72EFF08B172B6FEE78DF8E6
:100DA00000508DF801508DF802508DF8036001223B
:100DB00069460548FFF7BCFE002801D072B6FEE781
:100DC000BDE8FC810028004018000020FEE7FEE797
:100DD0007047010901EB810100F00F0000EB4100B9
:100DE000C0B27047002102E00A38C0B2491C0A288C
:100DF000FAD2090740EA116070472DE9F041044634
:100E00000025C07B627BA37B42E0012A16D0032A27
:100E100014D0052A12D0072A10D0082A0ED00A2A88
:100E20000CD00C2A0AD0042A10D0062A0ED0092A87
:100E30000CD00B2A0AD0022A0DD028E01F2B0CD38D
:100E40000C2A05D101221346401C20E01E2B04D39E
:100E50000123521C1BE01C2B02D203F1010316E0FC
:100E600011D183B29E0710D16426B3FBF6F706FBBF
:100E7000173636B94FF4C876B3FBF6F706FB1733CF
:100E80001BB91D2303E01D2B01D1032201236D1C7F
:100E90008D42BAD3D1B2E0736173DAB2A27300F0BB
:100EA0004FF82073BDE8F08170B50446FFF760F994
:100EB00005464FF47A7606E0FFF75AF9401BB04238
:100EC00001D9032070BD206840688006F4D52068F1
:100ED000416841F010014160002070BD70B50446CA
:100EE0000068416821F010014160FFF741F90546B3
:100EF0004FF47A7607E000BFFFF73AF9401BB042A3
:100F000001D9032070BD206840688006F4D5002018
:100F100070BD0168086A496A89B241EA00407047B9
:100F2000006881698AB2C1698BB2816989B28A42DB
:100F300003D0C06961F31F40704743EA0240704725
:100F400030B5C1EBC10404EB01140925B4FBF5F481
:100F500000F5FA63224418461044642294000725E1
:100F600003290AD25B1EB3FBF2F100EB9300401A97
:100F7000B3FBF4F10844001D08E0B3FBF2F100EB11
:100F80009300401AB3FBF4F10844801CB0FBF5F168
:100F900005FB1100C0B230BD70B50D4606460024F9
:100FA000FFF782FF48B93168280C08623168A8B29F
:100FB00048623046FFF792FF00B10124204670BD21
:100FC00070B50D4606460024FFF76EFF48B931683C
:100FD000280C88613168A8B2C8613046FFF77EFFEF
:100FE00000B10124204670BD7047FFF7C7B830B587
:100FF00093B028216846FFF79CF814210AA8FFF750
:1010000098F800240F940320009010944FF480303F
:10101000019001251020CDE90450119412940794F9
:101020006846FFF7F1FA08B172B6FEE70F20CDE986
:101030000A040C940D9400210AA80E94FFF708FAF4
:1010400008B172B6FEE74FF44070CDE90F500FA81B
:10105000FFF788F9002801D072B6FEE713B030BD63
:101060007047FEE70907090E002804DB00F1E020C5
:1010700080F80014704700F00F0000F1E02080F8C5
:10108000141D704702E008C8121F08C1002AFAD1D7
:1010900070477047002001E001C1121F002AFBD1F8
:1010A0007047000008B5FFF771F8FFF7A0FF0F4881
:1010B000816941F020018161816901F02001009185
:1010C000816941F004018161806900F004000090B1
:1010D000FFF718FE002206490648FFF75CFC0449AA
:1010E0000022C91C0348FFF72FFCF3E70010024061
:1010F0000000002018000020000000000000000098
:1011000001020304060708090000000001020304AD
:1011100030110008000000201800000084100008B2
:10112000481100081800002018040000941000085E
:10113000000000000000000001000000100000009E
:08114000000000000024F4008F
:04000005080000ED02
:00000001FF
