:020000040800F2
:1000000000050020010100081F1000088F0F0008E4
:100010001D1000086D010008A91300080000000071
:100020000000000000000000000000005113000864
:100030006F010008000000002110000853130008A1
:100040001B0100081B0100081B0100081B01000820
:100050001B0100081B0100081B0100081B01000810
:100060001B0100081B0100081B0100081B01000800
:100070001B0100081B0100081B0100081B010008F0
:100080001B0100081B0100081B0100081B010008E0
:100090001B0100081B0100081B0100081B010008D0
:1000A0001B0100081B0100081B0100081B010008C0
:1000B0001B0100081B0100081B0100081B010008B0
:1000C0001B0100081B0100081B0100081B010008A0
:1000D000251000081B0100081B0100081B01000877
:1000E0001B0100081B0100081B010008DFF80CD0F1
:1000F00000F02AF800480047E91300080005002036
:100100000648804706480047FEE7FEE7FEE7FEE7B1
:10011000FEE7FEE7FEE7FEE7FEE7FEE7A7130008BF
:10012000ED000008D2B201E000F8012B491EFBD21D
:1001300070470022F6E710B513460A4604461946F2
:10014000FFF7F0FF204610BD064C074D06E0E068C3
:1001500040F0010394E8070098471034AC42F6D30E
:10016000FFF7C8FF88140008A8140008FEE77047CE
:1001700010B590F821100024022903D004218163D6
:1001800001243DE001680A6822F00E020A6001685D
:100190000A6822F001020A601A4A0168914201D1FC
:1001A000012121E0174A1432914201D110211BE0B4
:1001B000144A2832914201D1891515E0114A3C3286
:1001C000914201D189140FE00E4A5032914202D17E
:1001D0004FF4803108E00B4A6432914202D14FF46F
:1001E000801101E04FF08071064A083A5160012108
:1001F00080F82110002180F82010416B01B1884760
:10020000204610BD0800024070B5044600F004F915
:100210000546601C02D004480078044400F0FCF855
:10022000401BA042FAD370BD200000202DE9F84FFA
:10023000DFF8B891002409F1040A0AF1040B2346FF
:100240000F270BF1040EC9E00125A5402A40AA4260
:100250007DD1674ED1F804C0ACEB0608B44532D06E
:1002600014DCBCF1030F3AD009DCBCF1000F2AD03A
:10027000BCF1010F1CD0BCF1020F31D11DE0BCF16B
:10028000110F17D0BCF1120F2AD119E0B8F5881F51
:1002900019D006DCB8F5803F15D0B8F5801F1FD106
:1002A00011E0B8F5001F0ED0B8F5041F18D10AE010
:1002B000CB6815E0CB681B1D12E0CB6808330FE05C
:1002C000CB680C330CE08B682BB1012B4FF008038B
:1002D00003D0456104E0042302E0056100E000234F
:1002E000FF2A01D8064601E000F104064FEA840522
:1002F00001D9A5F12005D6F8008007FA05FC28EA07
:100300000C0803FA05F548EA0508C6F800804D68B0
:10031000ED0062D5374DAE6946F00106AE61AD69BC
:1003200024F0030605F001050095334D06EB050C9E
:10033000DCF80850A607360F07FA06F825EA080584
:10034000DFF8B880404503D14FF0000817E044E0E3
:10035000DFF8AC80404502D14FF001080FE0DFF834
:10036000A480404502D14FF0020808E0DFF89880F1
:10037000404502D14FF0030801E04FF0040808FAAD
:1003800006F848EA0508CCF808804D68D9F80060FE
:10039000ED034D4601D5164300E096432E604D68AF
:1003A000DAF80060AD03554601D5164300E09643E8
:1003B0002E604D68DBF80060ED025D4601D5164306
:1003C00000E096432E604D68DEF80060AD02754691
:1003D00001D5164300E096432E60641C0D682A4642
:1003E000E5407FF431AFBDE8F88F00000004014024
:1003F0000000111000100240000001400008014000
:10040000000C014000100140001401400AB10161DC
:1004100070470904FBE7000001488068704700004E
:1004200020000020024881680278114481607047F2
:1004300020000020074810B5016841F0100101605C
:10044000032000F075F8002000F006F800F024F812
:10045000002010BD0020024070B50D4D04464FF441
:100460007A712878B1FBF0F00A490968B1FBF0F025
:1004700000F079FD48B9102C07D200222146501E09
:1004800000F036F800206C6070BD012070BD0000E7
:10049000200000202C0000200C4808B5816941F0A4
:1004A00001018161816901F001010091C16941F09F
:1004B0008051C161C06900F08050009004484168DB
:1004C00021F0E06141F00071416008BD0010024080
:1004D00000000140002809DB00F01F0201219140CB
:1004E0004009800000F1E020C0F8001170470000D2
:1004F000F0B40E4B1B680C46C3F30223C3F107058F
:10050000042D00D90425191D072901D2002300E07C
:10051000DB1E012606FA05F1491E214099409E4046
:10052000761E16403143F0BC00F03FBF0CED00E0FA
:10053000064900F0070208684FF6FF03184040EA3A
:100540000220034A10430860704700000CED00E0F1
:100550000000FA052DE9F0470F46050061D0434E33
:10056000306800F00700B84209D2306820F0070078
:1005700038433060306800F00700B84251D1286835
:100580003B4C810712D5400703D5606840F4E0601A
:1005900060602878000703D5606840F460506060B0
:1005A0006068A96820F0F000084360602878C00700
:1005B00028D06868012810D02168022810D0890747
:1005C00000292EDA616821F0030101436160FFF721
:1005D00023FF804641F288390DE021688903EFE767
:1005E0008901EDE7FFF718FFA0EB0801494502D9A3
:1005F0000320BDE8F0876068696800F00C00B0EB8C
:10060000810FEFD1306800F00700B8420BD9306895
:1006100020F0070038433060306800F00700B8422F
:1006200001D00120E5E72878400705D56068E96832
:1006300020F4E060084360602878000706D5606811
:10064000296920F4605040EAC100606000F018F8A9
:100650006168084AC1F30311515CC840064908604B
:1006600006480068FFF7F8FE0020C2E700200240BD
:1006700000100240781400082C0000202400002004
:1006800012A185B00FC98DE80F0014A0144A0068AC
:1006900004905168134801F00C03042B10D0082B70
:1006A0000ED1C1F38343C9031DF803000AD5516875
:1006B00004AAC1F34041515C0A4A5043B0FBF1F037
:1006C00005B0704708494843FAE7000002030405F3
:1006D000060708090A0B0C0D0E0F1010010200008E
:1006E0000010024000127A0000093D002DE9F84F89
:1006F000040070D02078C04DC00749D06868C0F3AE
:100700008100012807D06868C0F38100022809D160
:100710006868C00306D52868800339D5606800285A
:10072000E7D035E06068B0F5803F0BD010B1B0F590
:10073000A02F11D0286820F480302860286820F489
:10074000802002E0286840F480302860606890B122
:10075000FFF762FE06460AE0286840F48020286021
:10076000F0E700BFFFF758FE801B642873D82868A5
:100770008003F7D50CE0FFF74FFE064605E000BF0B
:10078000FFF74AFE801B6428F0D828688003F7D45E
:1007900020789A4E80074FF001094FF0000839D5B4
:1007A000686810F00C0F07D06868C0F38100022859
:1007B00009D16868C00306D42868800714D5206969
:1007C000012808D110E02069B0B1C6F80090FFF709
:1007D00023FE074605E00AE1FFF71EFEC01B0228C4
:1007E000C4D828688007F7D52868616920F0F80028
:1007F00040EAC10028600DE0C6F80080FFF70CFE5B
:10080000074604E0FFF708FEC01B022823D828682B
:100810008007F7D4207800072CD57948A169D9B191
:10082000C0F80090FFF7F8FD074604E0FFF7F4FD7D
:10083000C01B02280FD8686A8007F7D571484FF4AB
:10084000FA510068B0FBF1F0009000BF0098411E23
:100850000091FAD20EE080E0C0F80080FFF7DCFDE6
:10086000074604E0FFF7D8FDC01B022875D8686A68
:100870008007F7D42078400760D5E8690027C000DA
:1008800008D4E86940F08050E861E869012700F089
:10089000805000905C480168C90513D40168834604
:1008A00041F480710160FFF7B7FD824606E000BFAA
:1008B000FFF7B2FDA0EB0A0064284ED8DBF8000079
:1008C000C005F5D5E06801280AD008B1052813D085
:1008D000286A20F001002862286A20F0040002E063
:1008E000286A40F001002862E06841F2883B98B134
:1008F000FFF792FD82460BE0286A40F00400286270
:10090000EEE700BFFFF788FDA0EB0A0159455AD872
:10091000286A8007F6D50CE0FFF77EFD824605E0E9
:10092000FFF77AFDA0EB0A0159454CD8286A8007E9
:10093000F6D41FB1E86920F08050E861E06988B31F
:100940006968C1F38101022944D00228C6F8608099
:1009500004D0FFF761FD044638E034E0FFF75CFDAA
:10096000074604E0FFF758FDC01B02282BD8286873
:100970008001F7D4206AB0F5803F05D16868A1688E
:1009800020F4003008436860D4E90801084369682E
:1009900021F4741108436860C6F86090FFF73CFDCD
:1009A000044606E025E000BFFFF736FD001B0228E5
:1009B00009D828688001F7D51BE000BFFFF72CFDA0
:1009C000001B022802D90320BDE8F88F28688001A7
:1009D000F4D40EE00128F7D06868226A00F4803170
:1009E000914204D1616A00F47010884201D0012064
:1009F000EAE70020E8E70000001002400000424261
:100A0000800442422C00002000700040704700002B
:100A100038B50446006842688168C9434B0606D56C
:100A2000CB0704D1D3435B0601D4216C05E08B07CF
:100A300008D4D3431B0605D4616C01B02046BDE841
:100A4000304008478B0601D54B0646D4D3439B065E
:100A500043D44B060AD494F85130032B3ED0636D37
:100A600043F004036365C36883680093890609D46F
:100A7000616D41F00101616581680091016821F0BB
:100A800040010160606D002827D02068416821F096
:100A9000E0014160012084F85100900722D02068D5
:100AA000416821F003014160104DE06C40B14563A5
:100AB000E06CFFF75DFB18B1606D40F040006065D1
:100AC000A06C002809D04563A06CFFF751FB0028FB
:100AD00003D0606D40F04000606538BDC16880683B
:100AE000009038BD2046FFF791FF38BDCD110008BA
:100AF00070B5040009D0606A002540B125616561C8
:100B0000A56294F8510040B10CE0012070BD60680E
:100B1000B0F5827FF4D0E561F2E784F850502046CA
:100B200000F040F8022084F851002068016821F0AC
:100B300040010160A088218900F4827001F4044121
:100B40000843A18901F400610843217C01F00201FE
:100B50000843217D01F001010843218B01F400715C
:100B60000843217F01F03801084394F8201001F078
:100B700080010843218D01F4005108432168086079
:100B8000A069042101EA1040216848602068C16919
:100B900021F40061C1616565012084F851000020E5
:100BA00070BD000070B586B00024009401940294DA
:100BB00003942B4A01682B4802250326914222D137
:100BC000816941F480518161816901F4805104910E
:100BD000816941F0040181618069694600F0040087
:100BE0000490B020CDE900051F4D03962846FFF77D
:100BF0001DFB4020CDE90004694628460294FFF71A
:100C000015FB06B070BD194A9142FAD1C16941F491
:100C10008041C161C16901F480410491816941F061
:100C2000080181618069124C00F0080004904FF4C3
:100C30003040009069462046FFF7F8FA4FF48040B4
:100C4000CDE90005694603962046FFF7EFFA00223A
:100C500011462420FFF74CFC2420FFF73BFCD0E793
:100C60000030014000100240000801400038004000
:100C7000000C0140F0B400248568134604261DB919
:100C80004268B2F5827F0DD090F85020012A0FD033
:100C9000012280F8502090F851700022012F0AD0D4
:100CA000022436E080F85160F0BC0A4600F008B932
:100CB0000220F0BC704771B16BB180F851604265A1
:100CC00081638387C38702638286C2864264C16868
:100CD00019B1124902E001241BE011490164B5F584
:100CE000004F09D101680B6823F040030B600168D5
:100CF0000B6823F480430B6001684B6843F060038A
:100D00004B6001680B685B0603D40B6843F040033B
:100D10000B6080F850202046CBE7000059120008F5
:100D20007912000810B50068084988420CD14115B5
:100D300001220748FFF76AFB0649BDE81040202260
:100D4000A1F15800FFF796BF10BD00000030014030
:100D5000000C0140E00000202DE9F84F044690F817
:100D6000500000271D461646894601280DD04FF039
:100D7000010B84F850B0FFF74FFB804694F8510008
:100D8000BA46012804D0022793E00220BDE8F88F7C
:100D9000B9F1000F73D0002E71D0032084F85100F8
:100DA000C4F854A0C4F83090A686E686C4F838A0EB
:100DB000A4F83CA0A4F83EA0C4F844A0C4F840A005
:100DC000A068B0F5004F09D12068016821F040010A
:100DD00001602068016841F4804101602068016879
:100DE000490603D4016841F040010160E068B0F5B4
:100DF000006F606803D030B3012E24D041E008B109
:100E0000012E1CD1206B21680088C86006E0206894
:100E10008168890709D5216B0988C160206B801C16
:100E20002063E08E401EE08609E0FFF7F5FAA0EBB4
:100E30000800A84202D3681C01D031E07DB3E08EE7
:100E40000028E4D120E0206B21680078087306E0D8
:100E500020688168890709D5216B09780173206BA7
:100E6000401C2063E08E401EE0860AE0FFF7D4FAC3
:100E7000A0EB0800A84203D3681C02D010E017E0E2
:100E80006DB1E08E0028E3D142462946204600F0AD
:100E9000D3F908B120206065A06818B106E0FFE72B
:100EA000032706E02068C16880680090606D00B18B
:100EB000012784F851B084F850A0384666E7000056
:100EC000F0B590F850500024012D0CD0012580F889
:100ED000505090F8515000264768012D0BD0B7F5BF
:100EE000827F06D101E00220F0BD87680FB9042D92
:100EF00001D0022429E0A9B1A2B19BB190F85150D0
:100F0000042D02D0052580F8515046650163838683
:100F1000C38682638387C387C16829B10D49016491
:100F20000D4904E0012410E00C4901640C494164BE
:100F300001684A6842F0E0024A6001680A685206A5
:100F400003D40A6842F040020A6080F850602046EC
:100F5000F0BD000031100008911000086110000879
:100F6000C1100008704710B5401EB0F1807F01D35A
:100F7000012010BD4FF0E02460610F21601700F0E8
:100F800014FA0020A06107202061002010BDFEE7B8
:100F9000104810B50E4901604FF482714160002184
:100FA0004FF40062C0E902120122C0E90412920467
:100FB00082613822C2618022C0E9082181620A214F
:100FC000C162FFF795FD002801D072B6FEE710BDA3
:100FD00000300140300000200F4810B50D4901607D
:100FE00000214FF400624160C0E902120122C0E911
:100FF00004123822C0E906128022C0E90821816269
:101000000A21C162FFF774FD002801D072B6FEE725
:1010100010BD00000038004088000020FEE7FEE719
:10102000704700000148FFF7F3BC00008800002073
:101030000168C968826B1180816B891C8163C18FD3
:10104000491EC187C18F002909D101684A6822F071
:1010500040024A60C18E002901D100F049B87047B2
:101060000168097B826B1170816B491C8163C18FA0
:10107000491EC187C18F002909D101684A6822F041
:1010800060024A60C18E002901D100F031B870477A
:10109000016B02680988D160016B891C0163C18EF4
:1010A000491EC186C18E002909D101684A6822F013
:1010B00080024A60C18F002901D100F019B8704741
:1010C000016B026809781173016B491C0163C18EC1
:1010D000491EC186C18E002909D101684A6822F0E3
:1010E00080024A60C18F002901D100F001B8704729
:1010F00038B50446214845F6C0510068B0FBF1F010
:10110000642148430090FFF787F902462068416850
:1011100021F020014160009888B1401E00902068B5
:1011200080688007F7D56421204600F085F818B163
:10113000606D40F020006065A06828B108E0606D37
:1011400040F020006065EEE72068C168806800908C
:10115000616D012029B184F851002046FFF756FC4B
:1011600038BD94F8511084F851000429204602D06B
:10117000FFF7F8FE38BDFFF7D5FD38BD2C00002085
:1011800038B504460068416821F060014160FFF70E
:1011900043F902466421204600F020F818B1606D42
:1011A00040F020006065A06818B92068C1688068B8
:1011B0000090012084F85100606D0028204602D084
:1011C000FFF724FC38BDFFF7ADFD38BD10B5406A10
:1011D0000021C187C186FFF719FC10BDF8B5044690
:1011E00040684FF48273984217D1A0684FF480652D
:1011F000B0F5004F01D0A8420FD12068066826F054
:10120000400606606068984207D1A068A84204D1F1
:1012100000920B460022012103E000920B460022BF
:101220008021204600F038F8002804D0606D40F09E
:10123000200060650320F8BD38B50B4600920446D7
:101240000022802100F028F8002804D0606D40F0D2
:1012500020006065032038BD0168C968826B118079
:10126000816B891C8163C18F491EC187C18F002991
:1012700001D1FFF785BF70470168097B826B117050
:10128000816B491C8163C18F491EC187C18F0029B1
:1012900001D1FFF775BF70472DE9F8431E4691460F
:1012A00088460446089DFFF7B7F8401B351AFFF73C
:1012B000B3F8074625480068C0F3CB30684338E0F0
:1012C000701C37D0FFF7A8F8C01BA84203D215B195
:1012D000009860B32CE02068416821F0E001416093
:1012E0006068B0F5827F0BD1A068B0F5004F02D0E6
:1012F000B0F5806F04D12068016821F040010160E1
:10130000A06AB0F5005F09D12068016821F400519E
:1013100001602068016841F400510160012084F8F7
:101320005100002084F850000320BDE8F883002518
:10133000401E00902068816838EA010004D0002136
:101340004945BDD10020F0E70121F9E72C0000203C
:101350007047FFF767B810B590B028216846FEF7D0
:10136000E8FE14210AA8FEF7E4FE02200090012006
:10137000049010200024059007946846FFF7B6F902
:1013800008B172B6FEE70F20CDE90A040C940D9463
:1013900000210AA80E94FFF7DDF8002801D072B6EC
:1013A000FEE710B010BD7047FEE70907090E0028E0
:1013B00004DB00F1E02080F80014704700F00F001B
:1013C00000F1E02080F8141D704702E008C8121FE9
:1013D00008C1002AFAD170477047002001E001C11E
:1013E000121F002AFBD1704786B0FFF723F8FFF7E2
:1013F000B2FF00200190029003901B48816941F0E8
:1014000004018161816901F004010491816941F065
:10141000080181618069694600F0080004904FF47A
:10142000007000901148FEF701FFFFF7B1FDFFF7D4
:10143000D3FD0F492022A1F15800FFF71BFC0C48F7
:10144000642320220B49B038FFF786FC4FF47A74EE
:101450000748642320220749B038FFF77DFC204667
:10146000FEF7D2FEF4E7000000100240000C01403D
:10147000E00000200000002000000000000000004C
:101480000102030406070809A81400080000002050
:1014900030000000CA130008D814000830000020F3
:1014A000D0040000DA1300084D6173746572207374
:1014B000656E6400000000000000000000000000F5
:1014C000000000000000000001000000100000000B
:0814D000000000000024F400FC
:04000005080000ED02
:00000001FF
