:020000040800F2
:100000009004002001010008D317000857170008CA
:10001000D117000879050008391900080000000010
:10002000000000000000000000000000D7170008DA
:100030007B05000800000000D5170008D91700084C
:100040001B0100081B0100081B0100081B01000820
:100050001B0100081B0100081B0100081B01000810
:100060001B0100081B0100081B0100081B01000800
:100070001B0100081B0100081B0100081B010008F0
:100080001B0100081B010008990400081B0100085F
:100090001B0100081B0100081B0100081B010008D0
:1000A0001B0100081B0100081B0100081B010008C0
:1000B0001B0100081B0100081B0100081B010008B0
:1000C0001B0100081B0100081B0100081B010008A0
:1000D0001B0100081B0100081B0100081B01000890
:1000E0001B0100081B0100081B010008DFF80CD0F1
:1000F00000F0B0F90048004779190008900400208A
:100100000648804706480047FEE7FEE7FEE7FEE7B1
:10011000FEE7FEE7FEE7FEE7FEE7FEE7451800081C
:10012000ED000008202A04DB203A21FA02F0002129
:10013000704721FA02F3D040C2F1200291400843F7
:1001400019467047D2B201E000F8012B491EFBD2DC
:1001500070470022F6E710B513460A4604461946D2
:10016000FFF7F0FF204610BD30B480EA010202F034
:10017000004530F0004221F0004013D090B1C30D93
:10018000D40DC2F31601C0F31600E41A41F40001C5
:1001900040F400027D34914201D3641C00E0490028
:1001A000002C02DA30BC002070474FF4000000231E
:1001B000914201D3891A034340084FEA4101F7D124
:1001C00051B1914202D14FF0004105E002D24FF00F
:1001D000010101E06FF0010103EBC450284430BC81
:1001E00000F0A6B82DE9FE4F81EA030404F00044B4
:1001F00021F0004100944FF0000B23F0004350EA3F
:1002000001045ED052EA03045BD0C3F30A54C1F385
:100210000A552C44A4F2F3340194A0FB0254C1F318
:10022000130141F48011C3F3130343F4801301FB62
:10023000024400FB034E840A970A44EA815447EAC9
:100240008357A4FB076802958D0A05FB07854FEAD3
:10025000932C04FB0C542705029D4FEA065847EAED
:100260001637B5EB08056EEB070C870E920E47EAC2
:10027000811742EA8312A7FB0201B6EB0B0164EB84
:1002800000042B0D43EA0C335E1844EB1C50DA4695
:100290005146E7FB0201C5F313044FEA0B3343EA6F
:1002A00014534FEA0432019C43EA0603A4F10C0400
:1002B0000294009CCDE900B400F07EF803B0BDE8E4
:1002C000F08F00200146F9E796230022114600F046
:1002D00038B800F0004230F000400AD0C10D01F5FE
:1002E0006071C0F3160042EA0151C2084007114391
:1002F000704700200146704701F0004330B421F000
:10030000004150EA010206D00A0DA2F56072C1F365
:100310001301002A02DC30BC00207047440F44EA7D
:10032000C104C100E01830BC00EBC250AFF3008044
:100330000029A8BF7047401C490008BF20F00100F9
:10034000704710B4B0FA80FC00FA0CF050EA0104D7
:1003500004BF10BC704749B1CCF1200421FA04F469
:1003600011FA0CF118BF012121430843A3EB0C0142
:10037000CB1D4FEA00614FEA102042BF002010BCA5
:10038000704700EBC35010440029A4BF10BC704755
:10039000401C490008BF20F0010010BC704710B598
:1003A000002B08DA401C41F1000192185B411A430E
:1003B00001D120F0010010BD2DE9F04D92469B4681
:1003C00011B1B1FA81F202E0B0FA80F22032904627
:1003D00000F052F804460F4640EA0A0041EA0B01D9
:1003E00053465A46084313D0114653EA010019D028
:1003F000C8F140025046FFF795FE05460E465046AE
:100400005946424600F038F8084305D0012004E080
:1004100020463946BDE8F08D0020054346EAE076E7
:100420002C4337430A986305E40AA0EB0800002236
:10043000FD0A44EA47540A3002D500200146E9E7A4
:10044000010510196941DDE9084500196941BDE858
:10045000F04DA4E7064C074D06E0E06840F00103CC
:1004600094E8070098471034AC42F6D3FFF742FEF9
:10047000381A0008581A0008202A04DB203A00FA2B
:1004800002F1002070479140C2F1200320FA03F3EB
:100490001943904070470000014800F060B9000027
:1004A0001800002070B5044600688168C943C90778
:1004B00017D1816821F00101816000F081FC0546BF
:1004C0000AE000BF00F07CFC401B022804D9206831
:1004D0008068C043C00706D020688068C043C0075A
:1004E000F0D0002070BDA06A40F01000A062E06A69
:1004F00040F00100E062012070BD0000F8B5002668
:100500000446009600688168C943C9072DD08168F8
:1005100041F001018160164816490068B0FBF1F016
:1005200000E0401E00900028FBD100F049FC054689
:1005300016E000BF00F044FC401B022810D92068E0
:100540008068C043C0070BD0A06A40F01000A062D2
:10055000E06A40F00100E06284F824600120F8BD08
:1005600020688068C043C007E4D10020F8BD0000C7
:100570001400002040420F00FEE770477047000063
:1005800030B590F82420012A1ED0012280F82420C2
:100590000A7A012A0268536818D023F04003536096
:1005A000D1E900231A4303685C680A4D2C402243BA
:1005B0005A600368CA685A62026809699162002138
:1005C00080F82410084630BD022030BD43F04003BF
:1005D000E5E70000E0FD3FFFF8B50024009490F847
:1005E00024202546012A12D0012280F824204A68BE
:1005F0001F23072A0DD20668776B521E02EB820278
:1006000093409F430B6893401F43776319E0022098
:10061000F8BD06680D2A0AD2376BD21F02EB8202A0
:1006200093409F430B6893401F43376309E0F76A89
:100630000D3A02EB820293409F430B6893401F43A5
:10064000F7620A68072306680A2A0AD3F7680A3A93
:1006500002EB420293409F438B6893401F43F76035
:1006600008E0376902EB420293409F438B68934056
:100670001F4337610A68102A01D0112A20D1124B7A
:1006800002689A4217D193681B0219D4936843F405
:10069000000393600968102912D10C490C4A0968BB
:1006A000B1FBF2F101EB8101490000E0491E00912C
:1006B0000029FBD104E0816A41F02001816201241C
:1006C00080F824502046F8BD00240140140000208A
:1006D00040420F0070B50068184988422DD1184873
:1006E00000F03AF8174CC0B22070FFF7EDFD164944
:1006F000FFF73AFDFFF7EDFD4FF06632134BFFF7C2
:1007000071FDFFF7F9FD124960600844114D4FF487
:100710000074B0F5830F01D9012208E009490848A7
:1007200064230122091D303000F0BCFF0022214665
:100730002846BDE8704000F03DBB70BD002401407C
:10074000180000200000002000F07F4566660A4087
:10075000000006BB000C01400068C06C704710B57B
:10076000044600684168890626D50168890723D5B3
:10077000A16AC90603D4A16A41F40071A16281682B
:10078000C1F34241072910D1217B71B9416821F0A1
:1007900020014160A06A20F48070A062A06AC004B9
:1007A00003D4A06A40F00100A0622046FFF792FF48
:1007B00021686FF0120008602068416809062ED594
:1007C000016849072BD5A16AC90603D4A16A41F47F
:1007D0000051A1628168C1F30231072909D0416843
:1007E000490515D48168C1F34241072910D1217B05
:1007F00071B9416821F080014160A06A20F4805005
:10080000A062A06AC00503D4A06A40F00100A06203
:100810002046FFF7B3FE21686FF00C0008602068E7
:10082000416849060DD50068C0070AD0A06A40F4A7
:100830008030A062204600F093F821686FF001003C
:10084000086010BD2DE9F0414FF0000704003D465F
:100850007ED0A06A002628B9E66284F8246020468B
:1008600000F080F82046FFF71DFEA16A01F010019C
:10087000014304D0A06A40F01000A06268E0A16AC1
:1008800021F4885141F00201A1626268E169237B91
:100890000A4347EA43010A43A1684FF48077B9420B
:1008A00008D0012906D0002194F814C0BCF1010F32
:1008B00002D00AE03946F7E7F3B1A36A43F0200318
:1008C000A362E36A43F00103E3622368D3F804C040
:1008D0002CF4694C4CEA010CC3F804C023689968F5
:1008E000DFF870C001EA0C0111439960A168B942B8
:1008F0000BD0012909D00CE0DFF85CC0A3690CEB38
:1009000043330B4343F40061DFE7218A0D05A5F56E
:1009100080152168CB6A23F470032B43CB622168D6
:1009200089680E4B1940914208D1E662A16A21F014
:10093000020141F00101A162BDE8F081A06A20F04E
:10094000020040F01000A062E06A40F00100E062A6
:100950000120F1E7FDF7E1FF00E0FFFFFE0E1FFFC2
:100960007047000000B585B000210091019102910F
:10097000039100681249884220D11248816941F4EC
:1009800000718161816901F400710491816941F014
:10099000040181618069694600F00400049001202F
:1009A000009003200190084800F014F9002211463D
:1009B000122000F071FA122000F060FA05B000BDBC
:1009C0000024014000100240000801402DE9F843D6
:1009D00000270D460446009700F0F2F98046206893
:1009E0008168C90508D5A06A40F02000A06284F89B
:1009F00024700120BDE8F8834168C90503D4C06AAA
:100A000010F4700F2AD0022000F078FA3B490968F0
:100A1000B1FBF0F62068036939490B424FEA6101E6
:100A20004FEAA1121FD1C3684FEA611C13EA0C0FF1
:100A300019D103690B4225D1C068104222D114207C
:100A400023E0681C0AD02DB100F0BAF9A0EB080031
:100A5000A84203D920680068800725D5206800686F
:100A60008007EED52DE003690B4202D1C168114227
:100A700006D0026923490A4206D1C068084203D160
:100A8000542002E0292000E0FC204643009816E0B4
:100A9000681C11D02DB100F093F9A0EB0800A8421A
:100AA0000AD90098B04207D2A06A40F00400A062C0
:100AB00084F8247003209DE70098401C0090B04209
:100AC000E6D321686FF012000860A06A40F400705D
:100AD000A06220688068C0F3424007280CD1207BC8
:100AE00050B9A06A20F48070A062A06AC00403D448
:100AF000A06A40F00100A06200207BE71400002003
:100B0000244992244992240070B5044690F82400A8
:100B100001280DD0012084F824002046FFF7EEFCC8
:100B200002004FF0000005D084F82400104670BD8C
:100B3000022070BDA16A40F60163994341F48071BF
:100B4000A162224D23682249AB4218D10E6816F4E7
:100B5000702F14D0A66A46F48016A6620E68760539
:100B600005D5A66A26F4005646F48056A662A66A03
:100B7000F6040AD5E66A26F00606E66206E0A66AEC
:100B800026F48016A6625E68E9E7E06284F8240035
:100B90006FF0020018602068436843F02003436050
:100BA00020688368C3F34243072B05D1A84208D1CC
:100BB000096811F4702F04D0816841F480118160BC
:100BC000B4E7816841F4A001F9E700000028014082
:100BD000042401402DE9F84FDFF8B891002409F111
:100BE000040A0AF1040B23460F270BF1040EC9E097
:100BF0000125A5402A40AA427DD1674ED1F804C004
:100C0000ACEB0608B44532D014DCBCF1030F3AD08B
:100C100009DCBCF1000F2AD0BCF1010F1CD0BCF1E3
:100C2000020F31D11DE0BCF1110F17D0BCF1120F32
:100C30002AD119E0B8F5881F19D006DCB8F5803F35
:100C400015D0B8F5801F1FD111E0B8F5001F0ED0E8
:100C5000B8F5041F18D10AE0CB6815E0CB681B1D5E
:100C600012E0CB6808330FE0CB680C330CE08B68E4
:100C70002BB1012B4FF0080303D0456104E004239E
:100C800002E0056100E00023FF2A01D8064601E0EA
:100C900000F104064FEA840501D9A5F12005D6F834
:100CA000008007FA05FC28EA0C0803FA05F548EA73
:100CB0000508C6F800804D68ED0062D5374DAE6975
:100CC00046F00106AE61AD6924F0030605F00105AA
:100CD0000095334D06EB050CDCF80850A607360FDF
:100CE00007FA06F825EA0805DFF8B880404503D181
:100CF0004FF0000817E044E0DFF8AC80404502D137
:100D00004FF001080FE0DFF8A480404502D14FF01A
:100D1000020808E0DFF89880404502D14FF0030850
:100D200001E04FF0040808FA06F848EA0508CCF894
:100D300008804D68D9F80060ED034D4601D5164393
:100D400000E096432E604D68DAF80060AD0355462A
:100D500001D5164300E096432E604D68DBF8006035
:100D6000ED025D4601D5164300E096432E604D68C6
:100D7000DEF80060AD02754601D5164300E09643EB
:100D80002E60641C0D682A46E5407FF431AFBDE853
:100D9000F88F000000040140000011100010024014
:100DA0000000014000080140000C0140001001401B
:100DB000001401400AB1016170470904FBE700001B
:100DC00001488068704700000800002002488168E0
:100DD000027811448160704708000020074810B570
:100DE000016841F010010160032000F075F8002057
:100DF00000F006F800F024F8002010BD00200240AA
:100E000070B50D4D04464FF47A712878B1FBF0F0BF
:100E10000A490968B1FBF0F000F0C6FB48B9102C94
:100E200007D200222146501E00F036F800206C60E8
:100E300070BD012070BD00000800002014000020DB
:100E40000C4808B5816941F001018161816901F0B7
:100E500001010091C16941F08051C161C06900F098
:100E6000805000900448416821F0E06141F0007139
:100E7000416008BD0010024000000140002809DB6D
:100E800000F01F02012191404009800000F1E020A4
:100E9000C0F8001170470000F0B40E4B1B680C4600
:100EA000C3F30223C3F10705042D00D90425191D3E
:100EB000072901D2002300E0DB1E012606FA05F116
:100EC000491E214099409E40761E16403143F0BC99
:100ED00000F033BD0CED00E0064900F007020868A1
:100EE0004FF6FF03184040EA0220034A104308600F
:100EF000704700000CED00E00000FA0510B529A4D1
:100F000001461DCC86B08DE81D002AA02A4C006841
:100F100004900020012923D002293AD010291DD1A4
:100F200061682268D20119D5C1F38342C9031DF853
:100F3000020009D5616804AAC1F34041515C1F4A0F
:100F4000B2FBF1F1484301E01D49484361684902A1
:100F500004D440005FF00301B0FBF1F006B010BD17
:100F6000226AC2F30121012903D1920701D5C803E6
:100F7000F4E7022905D1626A920702D549F640409A
:100F8000ECE70329EAD121688903E7D54FF2244031
:100F9000E4E700F033F96168C1F38131491C49008D
:100FA000DAE7000002030405060708090A0B0C0D26
:100FB0000E0F1010010200000010024000127A0013
:100FC00000093D002DE9F84305460078354CC0077F
:100FD00054D0E0690026C00008D4E06940F0805099
:100FE000E061E069012600F0805000902E48016821
:100FF000C90512D40168804641F480710160FFF791
:10100000DFFE074605E000BFFFF7DAFEC01B6428DD
:1010100023D8D8F80000C005F6D5206A10F4407037
:1010200021D0A98801F4407181421CD0206A1F4957
:10103000012220F440700A6000220A602062C0078A
:1010400011D0FFF7BDFE074641F2883808E000BF27
:10105000FFF7B6FEC11B414502D90320BDE8F88366
:10106000206A8007F4D5206A696820F4407008433C
:1010700020621EB1E06920F08050E061287880078E
:1010800005D56068A96820F440400843606028786E
:10109000C00605D56068E96820F4800008436060F8
:1010A0000020DBE700100240007000404004424294
:1010B0002DE9F0470F46050061D0434E306800F03F
:1010C0000700B84209D2306820F00700384330608A
:1010D000306800F00700B84251D128683B4C8107C6
:1010E00012D5400703D5606840F4E060606028785E
:1010F000000703D5606840F4605060606068A968CC
:1011000020F0F000084360602878C00728D06868A5
:10111000012810D02168022810D0890700292EDA72
:10112000616821F0030101436160FFF749FE8046D9
:1011300041F288390DE021688903EFE78901EDE785
:10114000FFF73EFEA0EB0801494502D90320BDE8A8
:10115000F0876068696800F00C00B0EB810FEFD198
:10116000306800F00700B8420BD9306820F0070063
:1011700038433060306800F00700B84201D00120E9
:10118000E5E72878400705D56068E96820F4E06065
:10119000084360602878000706D56068296920F454
:1011A000605040EAC100606000F038F86168084AA9
:1011B000C1F30311515CC840064908600648006845
:1011C000FFF71EFE0020C2E7002002400010024090
:1011D000201A0008140000200C00002004480549D3
:1011E00000684968044AC1F30221515CC840704755
:1011F0001400002000100240301A0008044805497D
:1012000000684968044AC1F3C221515CC840704774
:101210001400002000100240301A000812A185B00E
:101220000FC98DE80F0014A0144A0068049051689B
:10123000134801F00C03042B10D0082B0ED1C1F37E
:101240008343C9031DF803000AD5516804AAC1F3FA
:101250004041515C0A4A5043B0FBF1F005B0704781
:1012600008494843FAE70000020304050607080995
:101270000A0B0C0D0E0F10100102000000100240AE
:1012800000127A0000093D002DE9F84F040070D0EB
:101290002078C04DC00749D06868C0F3810001289C
:1012A00007D06868C0F38100022809D16868C003CC
:1012B00006D52868800339D560680028E7D035E076
:1012C0006068B0F5803F0BD010B1B0F5A02F11D001
:1012D000286820F480302860286820F4802002E00C
:1012E000286840F480302860606890B1FFF768FD9E
:1012F00006460AE0286840F480202860F0E700BF36
:10130000FFF75EFD801B642873D828688003F7D53B
:101310000CE0FFF755FD064605E000BFFFF750FD66
:10132000801B6428F0D828688003F7D420789A4E70
:1013300080074FF001094FF0000839D5686810F0B8
:101340000C0F07D06868C0F38100022809D16868D3
:10135000C00306D42868800714D52069012808D165
:1013600010E02069B0B1C6F80090FFF729FD0746EC
:1013700005E00AE1FFF724FDC01B0228C4D8286855
:101380008007F7D52868616920F0F80040EAC100BD
:1013900028600DE0C6F80080FFF712FD074604E064
:1013A000FFF70EFDC01B022823D828688007F7D45A
:1013B000207800072CD57948A169D9B1C0F80090F0
:1013C000FFF7FEFC074604E0FFF7FAFCC01B02280B
:1013D0000FD8686A8007F7D571484FF4FA51006852
:1013E000B0FBF1F0009000BF0098411E0091FAD2CE
:1013F0000EE080E0C0F80080FFF7E2FC074604E062
:10140000FFF7DEFCC01B022875D8686A8007F7D496
:101410002078400760D5E8690027C00008D4E86953
:1014200040F08050E861E869012700F080500090AA
:101430005C480168C90513D40168834641F4807192
:101440000160FFF7BDFC824606E000BFFFF7B8FC75
:10145000A0EB0A0064284ED8DBF80000C005F5D5E3
:10146000E06801280AD008B1052813D0286A20F0C6
:1014700001002862286A20F0040002E0286A40F097
:1014800001002862E06841F2883B98B1FFF798FCC0
:1014900082460BE0286A40F004002862EEE700BFB5
:1014A000FFF78EFCA0EB0A0159455AD8286A80073D
:1014B000F6D50CE0FFF784FC824605E0FFF780FCE0
:1014C000A0EB0A0159454CD8286A8007F6D41FB111
:1014D000E86920F08050E861E06988B36968C1F389
:1014E0008101022944D00228C6F8608004D0FFF7A9
:1014F00067FC044638E034E0FFF762FC074604E08E
:10150000FFF75EFCC01B02282BD828688001F7D4A7
:10151000206AB0F5803F05D16868A16820F40030EA
:1015200008436860D4E908010843696821F474112C
:1015300008436860C6F86090FFF742FC044606E086
:1015400025E000BFFFF73CFC001B022809D82868F3
:101550008001F7D51BE000BFFFF732FC001B02281B
:1015600002D90320BDE8F88F28688001F4D40EE08A
:101570000128F7D06868226A00F48031914204D1D2
:10158000616A00F47010884201D00120EAE700206F
:10159000E8E700000010024000004242800442429E
:1015A000140000200070004010B5401EB0F1807F94
:1015B00001D3012010BD4FF0E02460610F216017BE
:1015C00000F0BBF90020A06107202061002010BDC1
:1015D00070B5040004D094F83D00002510B106E079
:1015E000012070BD84F83C50204600F023F82420F0
:1015F00084F83D002068C16821F40051C160204694
:1016000000F022F92068016921F49041016120680D
:10161000416921F02A0141612068C16841F400510B
:10162000C1602564202084F83D0084F83E0000203D
:1016300070BD000030B585B0002400940194029480
:10164000039400681449884224D11448816941F404
:1016500080418161816901F480410491816941F097
:101660000401816180690E4D00F0040004904FF484
:1016700000700090022001900320039069462846E4
:10168000FFF7A8FA2815CDE9000469462846029418
:10169000FFF7A0FA05B030BD00380140001002404D
:1016A000000801402DE9F843044690F83D001F462C
:1016B00016460D4620284CD1C5B1BEB194F83C0069
:1016C000012846D0012084F83C004FF00008C4F8FF
:1016D0004080212084F83D00FFF772FBA6848146FC
:1016E000E684A068B0F5805F03D004E00120BDE887
:1016F000F883206928B12E465FF0000584F83C800D
:101700000EE00026FAE78021204600F0E3F8A0B9B9
:10171000AEB116F8010B21684860E08C401EE084F1
:10172000E08C4B464FF0000200970028EBD14FF0C1
:101730004001204600F0CEF830B10320D7E735F85D
:10174000020BC0F30800E6E7202084F83D000020EB
:10175000CDE70220CBE7FEE730B589B01821684617
:10176000FEF7F7FC002418480694079408941549DE
:101770008460016001250573047505614FF46021E3
:101780004460C161FFF75EF808B172B6FEE70F482A
:10179000CDE90004039404948DF8084069460A4892
:1017A000FEF7EEFE08B172B6FEE7CDE9064506A9E2
:1017B00005480894FEF710FF002801D072B6FEE736
:1017C00009B030BD00240140180000200002800054
:1017D000FEE7FEE770477047FFF7F8BA30B593B001
:1017E00028216846FEF7B5FC14210AA8FEF7B1FCD3
:1017F000002401200F9402250490009510201194DC
:1018000005901094129407946846FFF73DFD08B1C7
:1018100072B6FEE70F20CDE90A040C940D94002166
:101820000AA80E94FFF744FC08B172B6FEE70FA8B1
:101830000F951194FFF7C6FB002801D072B6FEE7A2
:1018400013B030BD7047000010B504460068016950
:10185000E26821F44051114301612169A068084305
:10186000616908432168CA6841F20C639A430243E4
:10187000CA6020684169A26921F440711143416145
:1018800013492068884202D1FFF7B8FC01E0FFF756
:10189000A5FC00EBC00101EB001061686422890027
:1018A000B0FBF1F1B1FBF2F06FF01803434301EB31
:1018B0008303322101EB0311B1FBF2F101F0F002DD
:1018C00002EB001001F00F0108442168886010BD90
:1018D000003801402DE9F041984617460E4604466F
:1018E000069D1DE0681C1BD02DB1FFF769FAA0EB27
:1018F0000800A84214D92068C16821F4D071C160E1
:101900002068416921F001014161202084F83D00F7
:1019100084F83E00002084F83C000320BDE8F081FC
:101920002068006836EA000004D00020B842D9D010
:101930000020F3E70120F9E7FEE70907090E002878
:1019400004DB00F1E02080F80014704700F00F0085
:1019500000F1E02080F8141D704702E008C8121F53
:1019600008C1002AFAD170477047002001E001C188
:10197000121F002AFBD1704786B0FFF72FFAFFF73E
:101980002DFF00242248009401940294039481695D
:1019900041F004018161816901F0040104918169D0
:1019A00041F00801816180691A4E00F008004FF48F
:1019B00000750490002229463046FFF7FBF901200C
:1019C0000095CDE901040220039069463046FFF7F7
:1019D00001F9FFF7C1FE11480F4901604FF416519C
:1019E000C0E901140C21C460C0E904418461C461F0
:1019F000FFF7EEFD08B172B6FEE708483038FFF792
:101A000083F806480A213038FEF7E0FFFEE70000C1
:101A100000100240000C0140003801404800002046
:101A2000000000000000000001020304060708098E
:101A30000000000001020304581A00080000002002
:101A4000180000005A190008701A00081800002039
:101A5000780400006A19000800000000000000007F
:101A60000100000010000000000000000024F4004D
:04000005080000ED02
:00000001FF
